:020000041008E2
:4000000000780408EB0208100D0000005103081051030810510308105103081000000000000000000000000000000000B13408104D03081000000000E13408104535081056
:400040004D0308104D0308104D0308104D0308104D0308104D0308104D0308104D0308104D0308104D0308104D0308104D0308104D0308104D0308104D0308104D03081000
:400080004D0308104D0308104D0308104D0308104D0308104D0308104D0308104D0308104D0308104D0308104D0308104D0308104D0308104D0308104D0308104D030810C0
:4000C0004D0308104D0308104D0308104D0308104D0308104D0308104D0308104D0308104D0308104D0308104D0308104D0308104D0308104D0308104D0308104D03081080
:400100004D0308104D0308104D0308104D0308104D0308104D0308104D0308104D0308104D0308104D0308104D0308104D0308104D0308104D0308104D0308104D0308103F
:400140004D0308104D0308104D0308104D0308104D0308104D0308104D0308104D0308104D0308104D0308104D0308104D0308104D0308104D0308104D0308104D030810FF
:400180004D0308104D0308104D0308104D0308104D0308104D0308104D0308104D0308104D0308104D0308104D0308104D0308104D0308104D0308104D0308104D030810BF
:4001C0004D0308104D0308104D0308104D0308104D0308104D0308104D0308104D0308104D0308104D0308104D0308104D0308104D0308104D0308104D0308104D0308107F
:400200004D0308104D0308104D0308104D0308104D0308104D0308104D0308104D0308104D0308104D0308104D0308104D0308104D0308104D0308104D0308104D0308103E
:400240004D0308104D0308104D0308104D0308104D0308104D0308104D0308104D0308104D0308104D0308104D0308104D0308104D0308104D0308104D0308104D030810FE
:400280004D0308104D0308104D03081010B5054C237833B9044B13B10448AFF300800123237010BD2C6A02080000000050750810084B10B51BB108490848AFF300800848F0
:4002C000036803B910BD074B002BFBD0BDE81040184700BF00000000306A020850750810CC460208000000007047FFF7FDFF72B6104C114DAC4209DA21686268A368043B19
:40030000A2BFC858D050FAE70C34F3E70B490C4A00209142BCBF41F8040BFAE709480A490860BFF34F8F00F007FA00F0E1F900F061F8FEE7B0570910C85709102C6A020863
:40034000F87502080040020808ED00E0FEE7FEE700B504207146084202D0EFF3098001E0EFF30880043001F039F9FEE72DE9F843804600244FF0000923E008F00105E043D8
:4003800003F03CFB02460B4600204FF0804104F087FF06460F4628464FEA580803F02EFB32463B4603F090FB06460F46484603F037FB32463B4603F0D5F903F097FD814649
:4003C0000134072CD9DD4846BDE8F88310B4401A019CE41A04FB00F4521A94FBF2F4181907EE900AF8EEE77A17EE900A5DF8044B704700BF2DE9F0412DED028B9EB062B690
:4004000000F084FB03F0C6F84849494801F0ECFB03F05AF903F072F903F038F900230493039300F0C9FB0228FBD103A904A800F0D7F90546012003F03BF93E4B1B6803EB3B
:4004400083039A003C4B1A44536823B94FF476713A4801F0B3F80021394801F01FFF0646344B1B6803EB83039A00334B1A445368012B04D84FF47671304801F09FF80121A0
:400480002F4801F00BFF07466423009300234FF49B724FF41B71FFF799FF80462C78632C3AD06878FFF762FF07EE904AF8EEE77A07EE100A77EE877ACDED047AAB7808EE7D
:4004C000103AE878FFF752FFB8EEC88A07EE900A38EE278A8DED038A049803F0A1FA04460D4618EE100A03F09BFACDE9000122462B46144905A803F083FD404603F090FA27
:40050000CDE900013A4631460F4803F061FD05A9074801F069FB03E00C49054801F064FB4FF47A7001F026F87BE700BF9865081000006640BC6D0208386F0810A465081013
:4005400000001D41D0650810F86508103C66081008B5012000F04CFF08BD00BF704700BF5C4AD2F8803303F00F0303F1D00152F8212002F00702032A04D0042A05D092B9CC
:40058000554914E0554A116811E003F1C002514951F8222002F01F02112A06D0132A04D04FF4FA4103E04E4901E04FF400418BBB484BD3F8902502F00100D3F88825C2F3BA
:4005C0000172D3F8883513F0405F07D0414BD3F88835C3F30173012B02D102E0012300E0002303B108B9032A46D13A48D0F88025C2F31103D0F88425C2F30C02D0F880054F
:40060000C0F300600130B1FBF2F202FB03F2B2FBF0F131E0012B2FD12E4BD3F8402602F00100D3F80026C2F30172D3F8003613F0405F07D0274BD3F80036C3F30173012B30
:4006400002D102E0012300E0002303B108B9032A12D12048D0F8002602F07F02D0F80036C3F30423D0F80006C0F3044002FB01F2B2FBF3F2B2FBF0F1164BD3F88033C3F30B
:40068000011321FA03F215494A601648D0F89030C3F3072301330069000E0130B2FBF0F08860B2FBF3F3CB600B6103F5742202F23F220D48A0FB0202C2F387420A7503F204
:4006C000E7330A4AA2FB03239B098B61DB03CB61704700BF0000264000127A008C42020800366E010000214083DE1B43D34D621008B50D4801F000FAFFF730FFFFF730FF51
:4007000000221146042000F025FC084800F0B8FC074B1B6893F8513013B1064800F020FD00F062FB08BD00BFE8680810486A0208347502085866081008B500F0AAFF074AF2
:40074000D2F8883043F47003C2F88830BFF34F8FBFF36F8F00F0A1FF08BD00BF00ED00E008B50222064B5A600822803B5A602022A3F540735A607721024800F01FFF08BD33
:40078000800332408C66081030B100200FE00130B0F5FA6F01D910E000200B4B1B6913F0400FF4D070470130B0F5FA6F08D8064B1B6913F0400FF6D170474FF0FF30704791
:4007C0004FF0FF30704700BF80023240034B6322DA709A705A701A70704700BF28750208F0B5D1B04FF47A7000F0C4FE002303E00021524AD1540133042BF9DD00F049FF2B
:4008000006464F4D2B6893F87D204E4C135923F0706343F06063135140276760132000F0A9FEA7602B6893F87D20135923F0706343F020631351002303E00133B3F5FA6F5E
:400840000ADC404A126912F0400FF6D106E00133B3F57A6F02DD0DE04FF0FF33394A126912F0400FF3D007E0013341F27072934202DD07E04FF0FF33324A126912F0400FF7
:40088000F2D101E04FF0FF33B3F1FF3F0FD1FFF79DFF50E00020FFF777FF4DF82400651C0120FFF771FF4DF82500023400E000244F2CEFDDF0B200F0F0FE00221EE05300C4
:4008C000591C5DF821405DF82300B0F1FF3F02D0B4F1FF3F02D1FFF779FF2CE01146002A00DAD11DC910154D6B5C5B00DBB26B54844202DD43F001036B540132272ADEDDA8
:400900000E4A117910785378034490780344D2781344DBB2994201D0FFF758FF084B1B6893F87D10074A8B5823F0706343F060638B5040239360014851B0F0BD28750208F8
:4009400034750208800232400D4B01229A619B690C4BB3F90030002B09DB5A0903F01F03012101FA03F36032074941F82230074B1B78012B02D10822054BDA60704700BF0E
:4009800000022640A466081000E100E0C86B02080003324000B583B044F20603984246D010D8B0F5005F35D003D8B0F5805F1CD08DE043F20303984232D043F2120398423F
:4009C00032D084E044F2100398426DD004D844F20803984243D07AE045F2010398426FD045F2020398426FD071E00021084601F057FE10B1FFF7B4FE09E00222354B5A606E
:400A00002022A3F560739A600022334B1A700CF0C7FA5CE0FFF7A4FE59E0013BDBB200E00623002BF9D152E000F034FF4FE02B4B1B78022B07D10222264B5A602022A3F599
:400A400060739A6043E0002B41D10222214B9A602022A3F560735A6002F0D2FD37E0204B1B88ADF804309DF8053013B91D4AD35C00E000235BBB0020174B18700222154BC6
:400A80009A602022A3F560735A60014601F008FE10B1FFF765FE1AE002220E4B5A602022A3F560739A6012E00F4B1B78022B0ED10222084B9A602022A3F560739A6006E0BC
:400AC0000A88074B1A8002E02022084B5A6003B05DF804FB80033240C86B02089D750208307502089C7502089B7502080000324008B5044B984204D1034A0121002002F060
:400B000093FB08BDBF000100C86B020810B582B04FF0007000F0C4FD1D4802F055FD08B1FFF71EFE684606F049FE08B1FFF718FE184802F06BFB184C1849204600F0E2FF36
:400B4000636943F0010363615D2000F02BFD01232362134C1349204600F0D2FCB4F90030002B08DB5A0903F01F000121814060320D4840F82210002B08DB590903F01F0378
:400B8000012202FA03F3084A42F8213002B010BD95090810F10A081000022640F06E0810A46608104909081000E100E008B5002000F01AFF08BD00BF08B5FFF7F7FF06F0C7
:400BC0000DFE234B187801281AD010B1022826D03CE0204BB3F90030002B0DDB5A0903F01F03012101FA03F320321B4941F82230BFF34F8FBFF36F8F0822184B9A6008BD2A
:400C0000144BB3F90030002B21DB590903F01F03012202FA03F3104A42F8213008BD0D4BB3F90030002B0DDB5A0903F01F03012101FA03F32032084941F82230BFF34F8F8C
:400C4000BFF36F8F0822054B5A6008BD002008BDC86B0208A466081000E100E0000332401F4B98422DD00CD840282ED003D8E8B1102828D02FE0802829D0B0F5807F28D0D6
:400C800029E0184B984228D006D8B0F1204F0DD0154B984212D01EE0144B98420AD00133984209D0023B984215D101E0002070470F4870470F4870470F4870474FF4A00055
:400CC0007047074870470D4870470D4870470D487047034870470C4870474FF4A400704706005200010000F0090000A0040000F00100520002005200030052000100500035
:400D00000200500005005200FF00520038B5124B1B6893F83130012B04D840F2C3110F4800F04CFC0C4B1D682A6AB5F8B03013442C46D5F8B420D358002B0BDB084B1868ED
:400D4000FFF78EFF6B6801229A6063689B68002BFBD138BD034838BD34750208AC660810CC6B0208020050001A4B186128B102230370FF23437000234380174B1B6893F81C
:400D800050202AB300B583B0B3F93830ADF80030002301931149684600F0B2FBBDF90030002B08DB590903F01F03012202FA03F30B4A42F82130084B1B6893F8513023B1A3
:400DC00002220849012000F077FA03B05DF804FB704700BFCC6B0208347502083D47020800E100E0F547020808B50248FFF7BCFF08BD00BFE06B020838B50B4B1B68D3F8D4
:400E0000B4301B58002B0DDA0D4604460B0C1B0423B140F2D521054800F0D0FBA9B26160002038BD024838BD34750208EC66081001008A0038B50368002B01DA002300E0F9
:400E4000094B73B90D460446C2600B0C1B0423B140F2BB21054800F0B1FBA9B2A160002038BD014838BD00BF01008A00EC66081038B504460D4619B99921084800F09EFBE0
:400E8000074B1B68D3F8B4301B59002B03DAE3682B60002038BD034838BD00BF2C6708103475020801008A00254B1B6893F8313083423AD900293AD00B6813F01F0F38D1C8
:400EC00070B50D4604461E4B1B6893F83130984204D340F2C3111B4800F070FB184B1B68186AB3F8B03004FB0304174E34602A68D2080021686803F063F800212046FFF7C9
:400F00007BFF346825B940F293310E4800F056FB2A4600212046FFF78DFF60B900210A4B1868FFF769FF40B970BD084870470748704706487047064870BD054870BD00BF5E
:400F400034750208EC660810E46B020803018A0001018A0010B504461346B2B9A9B9124B1B6893F83130984204D340F2C3110F4800F024FB0C4B1B681A6AB3F8B03004FBDB
:400F800003240B4B1C60002010BD43B149B1084A51609360111D2046FFF786FF10BD054810BD044810BD00BF34750208EC660810E46B020803018A002DE9F0411B4B1B6865
:400FC000DC68236883422CD90D464609A0EB4610012303FA00F819B900F05BFB074600E00027124B18680368002B01DA002300E00F4B83B9626852F8263018EA030F05D016
:4010000023EA080342F82630002400E0094C0021FFF7F2FE00E0084C25B9384600F03DFB00E0064C2046BDE8F08100BFE46B020801008A00020188000301880004018A00F9
:401040000B4B1B68DB681A6882420CD94109A0EB4110012202FA00F05B6853F82130184203D004487047044870470448704700BFE46B02080101880004018A0000018800A5
:40108000024B1B680BB9014B18607047F06B02082DE9F8430446884691461D46089F2C4B1B681BB9B5212B4800F088FA284B1B682C2000FB04F01C18EEB21E50C5F3072394
:4010C00063602D0CA560244B1B6893F831309E4204D340F2C311214800F070FA1E4B1B68196AB3F8B02006FB02162661666893F832309E4204D340F2DF11184800F05EFACB
:40110000154B1B681D6A803605EB46156561A668330C1B0423B14FF4FF71104800F04EFA330C1B0423B140F2FF110C4800F046FAB3B243EA0646AE60C4F81C90C4F8208053
:401140000023A36117B1B7F90030A381BDE8F883F06B02086C67081034750208EC660810F0B58FB0044618B95221274800F026FAA369072B03D95621234800F01FFAE36AAC
:401180001BB95821204800F019FA236B1BB959211D4800F013FA07AD04F114060FCE0FC537682F6002AD26460FCE0FC533682B60164B1B68B3F93620079B1344ADF83030C1
:4011C000089B0D93A26AE16A0CAD00953B460A98FFF75EFF00210091069B0A460598FFF757FF216B284600F08BF9BDF93030002B08DB590903F01F03012202FA03F3044A99
:4012000042F821300FB0F0BD6C6708103475020800E100E0F8B506460F461D4614461AB9FD211F4800F0CAF91E4B1B681BB9FE211B4800F0C3F91B4B1B682C2101FB0630EC
:4012400001FB07314B68012202FA03F31B04466802FA06F60269EAB18F69EFB91268002A01DA002200E0104AC2B92288134323600369DC6001238B614D620469330C1B04FC
:4012800023B140F2BB21094800F098F9B2B2A2600020F8BD0648F8BD0648F8BD0548F8BD6C670810F06B020801008A00EC66081004028A0007028A00F8B505460F46164626
:4012C0000E4B1B6823B94FF4AF710D4800F076F90A4B1B682C2404FB0534236A23B94FF4B171074800F06AF9E369B34204D9236A43F826700020F8BD0248F8BDF06B02089A
:401300006C6708100A028A0038B504460D46074B1B6823B94FF4C871054800F04FF9034B1B682C2202FB0434A56238BDF06B02086C67081070B582B000230193044620B91F
:4013400040F2D111284800F039F9236923B94FF4E971254800F032F9636923B940F2D311214800F02BF9236A23B94FF4EA711E4800F024F96369DD682A0C20D012041A60BE
:401380001B682069194B1B68D3F8B430C358002B15DA01A9FFF76CFD60B9019803681E0CDBB2E269934206D2226A52F8233013B1984700E0002631462069FFF71DFDADB240
:4013C00075B16369ADB21D601B68636A1BB198470023636202E0A36A03B198470023A36163691B6802B070BD6C6708103475020810B50446074B1B6823B940F2B1110648C5
:4014000000F0DCF8034B1B682C2000FB0430FFF791FF10BDF06B02086C67081010B50446104B1B6823B940F22B210F4800F0C6F80C4B1B682C2202FB0434B4F90C30002B3C
:401440000DDB5A0903F01F03012101FA03F32032064941F82230BFF34F8FBFF36F8F002010BD00BFF06B02086C67081000E100E010B504460D4B1B6823B940F24B210C4818
:4014800000F09CF8094B1B682C2202FB0434B4F90C30002B08DB590903F01F03012202FA03F3044A42F82130002010BDF06B02086C67081000E100E038B50D4B9A680D4B55
:4014C0009A420FD10D46044621B940F237110A4800F074F804F11003064A52F8230042F8235038BD1030054B53F8200038BD00BF00ED00E000400208AC6708100000081021
:4015000048B338B504460D464368072B03D93221134800F053F8B4F900306268002B08DB5201D2B203F1604303F5614383F8002305E003F00F035201D2B20A49CA540A4BA0
:401540009A680A4B9A4208D12946B4F90000FFF7B3FF002038BD06487047002038BD00BFAC67081014ED00E000ED00E0004002080100560010B5044605E0084B186800F07C
:401580007FF8A4F50044B4F5004FF6D8044B186800FB04F000F074F810BD00BFA8420208A442020808B5034B1B7800FB03F000F067F808BDA042020801BEFEE738B50D4617
:4015C000044C18220146204602F03EFDA5610020FFF7F2FF684C0208FEE700BF08B50268254BDA6142681A6282685A62C2689A620269DA6242691A6382695A63C2699A63B5
:401600001E4A916AD963D16A1964516A5964516B9964926BDA64F1EE103A13F0900F27D0026A154B1A65426A5A65826A9A65C26ADA65026B1A66426B5A66826B9A66C26BA5
:40164000DA66026C1A67426C5A67826C9A67C26CDA67026DC3F88020426DC3F88420826DC3F88820C26DC3F88C20026EC3F89020FFF7B2FF08BD00BF684C020800ED00E01D
:401680000230800803D001300238FCD100BF00BF7047EFF3108072B6704780F31088704710B5044620F07F6323F4402323B140F2B3511348FFF782FF14F4700F16D014F055
:4016C000806F01D1002101E04FF4800114F0006F01D041F4000114F0807F01D041F4801114F0007F03D041F4001100E00021054A536823EA01031C435460536810BD00BF3D
:40170000F06708100000264010B30246C3680BB303680BB330B40579114B03EB85035C682346002103E0934205D019465B69002BF9D1012000E0002080B124B9084B03EB20
:4017400085056A6000E04A6111610023536105E000207047002070470020704730BC7047F46B020850B310B402460479164B03EB840359680B4602E0934204D05B69002BDD
:40178000FAD1002000E00120D0B18A420ED14B6933B10D4A02EB8404636000221A610FE0094B03EB84040023636009E01A69596951615A6922B11B69136101E00020704788
:4017C0005DF8044B704700BFF46B020830B583B004460D46022808D9042806D0032804D040F6B2112848FFF7E9FE6B1EDBB2012B08D9042D06D0082D04D040F6B3112248C8
:40180000FFF7DCFE214800EB84004468042D12D0012D1AD111E0A3681D420AD1E3681A6800925B6801932368294668469847174B9C61646902E0002000E0002014B3144B61
:401840009842E8D1012DE6D11CE0022D01D104E01C466369002BFBD103E00C4B9C6904B1246900200CE0A3681D4208D1E3681A6800925B6801932368294668469847246950
:40188000002CF0D103B030BDF0670810F46B0208FF00420010B5174BDB682BB101210220FFF794FF044600E00024E4B9FFF7F1FE104BDB681BB104210220FFF787FF0E4B19
:4018C00059680E4A0A4042F01B025A6059680C4A1143596059681143596059680A435A605B6830BF04E002210846FFF76FFF054C204610BDF46B0208000026400000FC0FF9
:40190000003A0280FF00420010B5044620B940F6A1211748FFF752FE164A1368DB6803F5F2431B6823601368DA6802F5F04212686260D96847F604028A58A260D96847F6CC
:4019400008028A58E260D96847F60C028A582261D96847F610028A586261D96847F614028A58A261DA6847F61803D358E36110BDF06708103475020810B5044620B940F684
:40198000C9211748FFF71AFE164B1B68DA68616802F5F0421160D968A06847F604028850D968E06847F608028850D968206947F60C028850D968606947F610028850D968DC
:4019C000A06947F614028850D968E06947F618028850DB68226803F5F2431A6010BD00BFF06708103475020870B50446012804D94FF426713A48FFF7E1FD3A4B9B682BB1CF
:401A000001210846FFF7E2FE054600E00025002D5ED1FFF73EFE0646324B9B681BB104210120FFF7D3FE304B1B6893F8432042B19B68D3F8E03013F0100F02D02B48FFF7C3
:401A400063FF4FF0B0539B899BB223B14FF0B0539B899BB201E04FF48073B3F5807F03D1204604F091FD1AE0214A136943F004031361012C01D030BF07E020BF194B1B7817
:401A800003B120BF0122174B1A70174B1B681A68D3F89430D35803F00303022BE4D0124B1B6893F8432042B19B68D3F8E03013F0100F02D00D48FFF75FFF3046FFF7EDFDF7
:401AC000084B9B684BB108210120FFF77FFE04E002210120FFF77AFE064D284670BD00BFF0670810F46B020834750208106C020800ED00E0FF004200014B1860704700BF3B
:401B000034750208002867D038B50546002965D00B7A1BB10B88B3FA83F35B090C461BB131212F48FFF74AFD637A1BB16388B3FA83F35B091BB132212948FFF73FFDA37975
:401B40001F2B03D933212648FFF738FD2379032B03D934212248FFF731FD6379032B03D935211F48FFF72AFDE379032B03D936211B48FFF723FD6288238843EA0243EB6081
:401B8000A3791B0603F0F851E279130403F480330B43227A920002F004021343627A920202F480621343E27A12B14FF4006200E0002213436279120202F440721343A27A03
:401BC0000AB1082200E000221343227902F0030213432B61002038BD02487047014838BDA06908100100D60030B4036813F4006F01D0802200E04022002408E0D0F8083260
:401C0000C3F308039A42F9D0C0F8405201340D5D002DF3D130BC7047002800F0A48170B50546002900F0A18116460C460B78022B03D93F21A248FFF7C1FC637B023BDBB2FA
:401C4000062B03D940219E48FFF7B8FCA37B3BB1022B05D0032B03D041219948FFF7AEFC94F82130012B03D942219548FFF7A6FC94F82830012B03D943219148FFF79EFC00
:401C80002378012B06D86368083B082B94BF0023012307E0A37F2BB16368013B062B94BF002301231BB145218548FFF787FCA368053B042B03D946218148FFF77FFC6369B2
:401CC000FF2B03D947217E48FFF778FCA369FF2B03D948217A48FFF771FCA37C6BB1237833B9A368092B05D1A37B2BB1012304E0012302E0012300E000231BB14A217048B1
:401D0000FFF75CFC636B23F4366323F00D031BB14C216B48FFF752FCE36B23F4EE6323F003031BB14D216648FFF748FC2378022B01D1A37F13B16268013A00E00022237F6A
:401D400013B14FF4803100E00021A368082B02D84FF4006300E000230B4302F00F02134343F000732B60226B2B6813F4006F01D0802300E040239A4203D362215048FFF701
:401D80001DFCA26B2B6813F4006F01D0802300E040239A4203D363214948FFF70FFC626A2B6813F4006F01D0802300E040239A4203D364214248FFF701FC23781B0603F086
:401DC00040732B64637F0BB1402200E00022A37C13B14FF4806300E000231343227C12B14FF4807200E000221343627C12B14FF4007200E000221A43E36A013B1B0403F4FB
:401E000070231343627B013A02F007021343A27B120102F030021343AB64237B13B14FF4807200E00022E37B23B92378022B03D1012302E0012300E0002313B14FF4007381
:401E400000E000231A43A368013B03F00F031343C5F80033227DA3691B0403F47F031343C5F81033E26AD5F8003303F00F0303339A4201D3102A03D97A211148FFF79EFB07
:401E8000E37F23B12378012B03D0002302E0002300E0012313B14FF4807200E00022637B013B03F007031A43A37B1B0103F0300313436B64237B2BB14FF4807203E000BFE1
:401EC000646A08100022A368013B03F00F0313432278012A02D14FF4803200E000221343C5F8003294F83030C5F8043394F8203013B14FF0007200E0002294F82130012B28
:401F000002D14FF0807300E00023134394F82820012A02D14FF4803200E00022134394F8242013432B6594F83830C5F80432636B23F4926323F002031B051B0DC5F8C83F89
:401F4000E36B23F08C035B055B0DC5F8883F76B1002070603060B060F0603062F0623063044B736370BD04487047034870BD002070BD00BFEFCDAB000160AA002DE9F8430B
:401F80000E46074618B93A217548FFF717FB1EB93B217348FFF712FB002F00F0DA80002E00F0DA8032686F4B13401BB14A216C48FFF704FB72686C4B13401BB14B2168485A
:401FC000FFF7FCFAB36813F0FC2F03D04C216448FFF7F4FAF36813F0FC2F03D04D216048FFF7ECFA337D032B03D94E215C48FFF7E5FAB369B3F5803F03D34F215848FFF78D
:40200000DDFAF36D072B03D950215548FFF7D6FA336EB3F5803F03D351215148FFF7CEFA736EB3F5803F03D352214D48FFF7C6FA736843F000437B60B3683B61F3687B61EA
:402040003369BB61337D9B07FB61B3693B62336803F46068736803F00409002435E02546A31D06EB83035A68404B13401BB163213B48FFF7A3FAAB1D06EB8303596805F135
:40208000200247F822105B6813F0012F0BD1B8F5606F08D1B9F1000F05D04FF47842344B23F8152003E00022314B23F81520726F02F11C7303F58033520093FBF2F31BB29B
:4020C0002C4A42F825300134E4B20F2CC7D9F36DC7F81832F36DC7F81032336EC7F82832336EC7F82032736EC7F83832736EC7F8303296F87030DBB1B36EB3F1804F03D3CF
:4021000082211748FFF75AFAF36E23F44F0323F0FF031BB183211248FFF750FA6FF04043C7F80433B36EC7F80033F36EC7F84433D7F8003F3F2B02D0D7F8003F13B90B2396
:40214000C7F8003F336843F400133B600020BDE8F8830948BDE8F8830748BDE8F88300BFA46A08100811DF0001FE302088CA887E38750208587502080100060038B50D4668
:40218000044618B9B5211748FFF718FA2CB30023236063604FF0031222616261A361E361236206E003F12002002144F822100133DBB20F2BF6D90023C4F81832C4F8283284
:4021C000C4F838325DB16FF04043C4F804330020C4F84003C4F8440338BD034838BD002038BD00BFA46A08100100060008B50368002B0ADBD0F8A032002BFBDB036843F00D
:40220000004303600220FFF7CDF908BD38B505460C46012904D940F271110648FFF7CEF9012C04D16B6843F480336B6038BD01236B6238BDA46A081038B504460D460129C6
:4022400004D94FF4F0711148FFF7B8F9D4F8103203F00103012D06D00AE0D4F8103203F00103013A00E00A4A1BB9002AF5D100E0074A33B10123C4F81032D4F8103200204D
:4022800038BD0AB9034838BD034838BDA46A081055555501020006000300060038B505460C460F2904D940F27B210648FFF786F90F2C04D8603455F8240080B200E0002031
:4022C00000B238BDA46A081010B5012902D0082929D02EE01A4B1B78012B2CD00320FEF7AFFE184B984228D0FFF7D3F9164B1860022005F075FA044605F07DFA022C05D123
:40230000032805D0052805D1002404E00F4C02E0002400E00D4C0D4B9C420FD10A4B1868FFF7BBF90AE0084B1868FFF7B6F9002404E0064C02E0054C00E0044C204610BD11
:402340009B75020801018800306C0208FF00420008B502291CD0082914D001291ED1124B1B78012B1CD0FFF794F9104B5860022005F036FA022815D00C4B5868FFF78DF949
:402380000B4808BD094B5868FFF787F9002008BD064B5868FFF781F9054808BD044808BD034808BD002008BD9B750208306C0208FF00420010B5044C2046FFF7D3F904F1CA
:4023C0001800FFF7CFF910BDAC42020890B110B5094A9060C36A03B1D3600024074B1C70074B1C70074B1C60074B1C7000F04CF9204610BD05487047306C0208A475020824
:40240000A8750208AC750208A97502080100160070B59AB03D4D15AC28686968AA68EB680FC4286920604C22002102A801F0C8FD374B029315AB049341F6D843ADF814300F
:4024400005238DF816301B23ADF82030ADF8223003238DF8243004238DF8253006238DF8263010238DF827308DF829306223ADF84C3001238DF85030264C2046FFF744F974
:4024800004F11800FFF740F905F096F908A805F0FDF90346002836D11F4B03931F4B9B68996B89B10B460DF12A0220311E685D689C68D868166055609460D060103310326F
:4024C0008B42F3D11B88138002A805F0A7F90346B0B90122124B1A700023124A1370124A13700E4B9B681A6A00929B6ADB88ADF804302623ADF8063068460DF0EDFF034682
:4025000000210A4A116018461AB070BDE06A0810992A0810AC420208FC4C0208306C02089B7502089C7502089D750208AC75020808B506F01BFB08BD08B5044B1B689847BB
:40254000034B1B6803B1984708BD00BF546C0208406C020808B510B1034A52689047034B1B6803B1984708BD546C0208406C020870B5C0B006460C4615464FF480720849DA
:40258000684601F012FD05E016F8012B6A401DF80250013C002CF7D1284640B070BD00BFF46A081008B5FFF774F808BD08B5FFF774F808BD08B50120FEF75AFF08BD00BFD4
:4025C00008B50120FEF72AFF08BD00BF08B5094B58601960012208491046FEF76DFE034628B9002205490120FEF766FE0346184608BD00BF546C02085525081039250810DE
:4026000038B515460B46024601210020FEF702FE044618B129460120FEF776FE204638BD704700BF704700BF0020704700487047110016000048704711001600004870470D
:40264000110016000048704711001600004870471100160000487047110016000048704711001600004870471100160000487047110016000048704711001600004870472A
:4026800011001600704700BF08B5034800F022FD024800F0A5FD08BD844402088C440208F8B5022872D8002972D10022134606E03B4CE45C012C01D90132D2B20133002B47
:4026C000F6D0012A0CD1374B1B681C6801EB8102930023445B681B79023BDBB2012B59D8314B1B78002B57D1304B1970E0B92D4F3C68236801EB8105AA009D186668C1EBA7
:40270000C1014B001E44B18829822168114449686468E45A0C8039680C682244526849680B445B8853801EE001281CD11D4F3C68236801EB8105AA009D186668C1EBC1017A
:402740004B001E44B1892982216811444D68616819440989298039680C682244526849680B445B895380124B18700E4B1B6818680E4B1B7803EB83039A00104409F02CFC37
:40278000034650B90121084A117006E0094B04E0084B02E0084B00E0084B1846F8BD00BF9C750208386C02089D7502089A750208A97502080100160002001600FF001600BD
:4027C00070B439B9144B1B681B689968CE7F00231D460EE0104B1B681B68D968CE7FF6E7CA5C52B10133CC5C1B2C01D0134400E00125B34201D2002DF2D05DB101338279E2
:40280000CA54002204E0D4180134855C0D550132052AF8D970BC7047386C020870B504460DF0A6FE0546D0B90E4B1968086A228902EB82029300143B03445A6812F0007F94
:402840000DD0E67B1B695A68CB69D21A06EB4606B318A28821680448184401F0A6FB284670BD00BF386C0208A075020830B587B002891A4B1B685B699B889A4229D1044602
:4028800001AB07C883E807000022ADF81020A289ADF8122040228DF814201846FFF7BEFF054680B923681B7803F002039BB22BB10B4B1B6821460B48984704E0084B1B6817
:4028C000214609489847094A137803F0FE03137000E00025284607B030BD00BF386C02083C6C02080500010006000100A475020838B50289531E9BB2182B1AD8C17BD1B955
:402900000E4B1C68256A02EB82029300143B2B445A6812F0007F09D01B695A68E369D31A01EB41011944064B5B5A13800DF0EEFD38BD012038BD012038BD00BF386C020834
:40294000A07502084288531E9BB2182B1AD84178D1B910B40F4B1868046A02EB82029300143B23445A6812F0007F0FD01B695A68C369D31A01EB41011944074B5B5A1380CC
:40298000002004E0012070470120704700205DF8044B7047386C0208A075020800B583B00023ADF804308389ADF800300389ADF8023012238DF80430084B1B7813F0010F0C
:4029C00009D129B18DF8051068460CF0B3FE02E0C0680CF0CFFE03B05DF804FBA475020810B4044688B10023194606E0114A52F82320944200D1012101330E4A127A9342E4
:402A000006D20029F2D0002003E000210A4800E0002058B951B9074B1B7A012B05D8054A42F823400133137200E004485DF8044B704700BFB0750208010016000300160008
:402A400070B506460D460020044606E0084B53F824302946304698470134054B1B7A9C4204D2044B1B7813F0010FEFD170BD00BFB0750208A475020883792BB1002070471C
:402A8000C25C32B9013300E00023052BF8D9002070470120704700BF70B58AB004460D46C14A137843F00103137044F20803984200F014823AD843F20103984200F0DC8009
:402AC00019D841F20203984200F0158108D8B0F5805F74D041F20103984200F00981C9E241F20303984200F03F8142F20403984200F0D480BEE244F20403984200F04881E3
:402B000009D843F21203984200F0B68043F2190398424ED0AEE244F20603984200F0E28144F20703984200F09281A3E245F20C03984200F057821BD845F20103984200F0A2
:402B400010820AD844F20A03984200F07D8144F21003984200F07B818CE245F20203984200F01D8245F20303984200F0318281E245F21003984200F070820AD845F20E0367
:402B8000984200F0648245F20F03984200F0628270E245F21703984200F0658246F20103984200F0DB8145F21403984240F0628256E27D4A137803F0FE0313705AE27B4B79
:402BC0001E683046FFF758FF60B130460AF0FAF9764E00213068FFF7F3FD01213068FFF7EFFD37E0724B1A68936A1B791BB34FF0B05191F8043603F03F0391F8050600F0A8
:402C00003F0043EA801391F8030600F01F0043EA003391F8001601F07F0143EA4143126B1370634A1168096BC3F3072048701268126B1B0C93705E4E3368186B0AF0C2F904
:402C400033680021186BFFF7BBFD33680121186BFFF7B6FD564B1B68986A02300AF0C8FD544A04AB1068516803C304A80AF0CEF90222514B1A70FDE100234F4A13704F4AB6
:402C800013704F4A13700A20FEF774FC43F212039C4240F0EF81FFF78DFBEBE1494B1B6813F0010F40F0E6810023ADF810308DF812303F4E33689B6A93F900308DF8103096
:402CC00004A80AF0BDF933689B6A93F901308DF8103001238DF81130FF238DF8123004A80AF0AEF9374A136843F001031360C1E1FFF7A6FEBEE14978334B1B88ADF81030EE
:402D0000002319E0314A32F81320ADF808209DF8092012B92E48825C00E00022012A0AD92A4A12F81320914205D1284A32F81330ADF8103002E00133002BE3D09DF81130FD
:402D4000FF2B05D104D140F2CA312248FEF736FCBDF81030ADF81C30ADF81830C3F3072329781D4AD15485E10B78002B40F082810B7A3BB9194B0322DA8028229A80184A77
:402D80001A604B60084A137803F0FE03137071E1CB78002B40F06E8149790B4B1B88ADF81030002338E000BFA4750208DC420208386C0208F46B08109B7502089D7502087B
:402DC000686C0208AC750208FC6B0810987502089C750208006C0810A8750208706C0208D4690208AC4A32F81320ADF80C209DF80D2012B9A948825C00E00022012A0AD9B1
:402E0000A54A12F81320914205D1A34A32F81330ADF8103002E00133002BE3D09DF81130FF2B05D104D140F2CA319D48FEF7C6FBBDF81030ADF82030ADF81030C3F3072368
:402E40000121984AD15415E1FFF7FAFD12E1AB7E002B3FD12B7E012B02D10022924B1A70E97E924B1B88ADF80C30002319E08A4A32F81320ADF810209DF8112012B9874874
:402E8000825C00E00022012A0AD9834A12F81320914205D1804A32F81330ADF80C3002E00133002BE3D09DF80D30FF2B05D104D140F2CA317A48FEF781FBBDF80C30ADF8C8
:402EC0002430ADF80C30C3F30723FF2B02D0297E774AD1540222774B1A70CBE00222754B1A70C7E0FFF7ACFD734B1B7813F0010F00F0C0806C4B1B78012B03D102226A4BAE
:402F00001A70B7E0032B03D10022674B1A70B1E0022B40F0AF800022634B1A70674B1B685B68674A1178C1EBC10203EB42039A79002A00F09F809B88002B00F09B80614B74
:402F40001B78002B40F096800120FFF7A9FB002840F090800122544B1A708BE0FFF770FD88E00B88ADF800309DF801301BB902214A4AD15405E023B940F286314848FEF79B
:402F80001DFB6A782988444B23F812106B7800214D4AD15429462046FFF752FD6AE00B88ADF804309DF805301BB900213B4AD15405E023B940F286313948FEF7FFFA6B78A5
:402FC0000021384AD15429462046FFF739FD51E00B88ADF810301723ADF8123004A80CF0B5FB47E00846FFF741FC014620B929462046FFF725FD01462846FFF7CFFC2E4B42
:403000001B7813F0110F04D0304B1B682946204698472A89284B1B7813F0010F11D0531E9BB2182B0DD912238DF81430ADF81220AB89ADF8103001238DF8153004A80CF03C
:4030400079FB1D4A137803F0FE03137012E0FFF7F7FC0FE0FFF7F4FC0CE0FFF7F1FC09E0FFF7EEFC06E00846FFF76CFC29462046FFF7E6FC104B1B7813F0110F09D00E4AAA
:40308000137803F0FE031370104B1B682946204698470AB070BD00BF987502089C750208006C0810686C02089D750208FC6B08106C6C02089B750208A4750208386C0208DA
:4030C0009A750208A9750208A87502083C6C02080020704730B108B5034A10600348FFF77FFC08BD024870477C6C0208D1300810010016001C4B1B68002B34D01A4B5B689F
:403100001B685A8803899A422DD18388012B2AD103681B78022B26D810B588B0044603AB07C883E807000022ADF81820A289ADF81A2040228DF81C201846FFF76FFB80B910
:40314000A389ADF8043000238DF806300294064B1B6801A905489847054A137803F0FE03137008B010BD7047806C0208BF000100A475020800B587B000238DF81730009358
:4031800001930293039304930123ADF80430074B5B681B685B88ADF808300DF1170300936846FFF73BFB07B05DF804FB806C0208B0F5803F11D208B583B245F20202934295
:4031C00007D045F20E02934205D10846FFF792FF01E0FFF7CFFF002008BD0020704700BF50B110B5064C60600648FFF7F9FB63685B681BB1236010BD0348704710BD00BFC9
:40320000806C0208B131081001001600044B18605B6813B15860002070470248704700BF806C020802001600DAB11346D8B901291BD100B587B000220292039204920592ED
:403240000193ADF808100B4B5B681B685B88ADF80C3001A8FFF74CFB08B1074807E0002005E005487047044870470348704707B05DF804FB806C02080100160043684B604C
:403280009A688A609A68516099600861036801330360704703694268816891608268416851605A68904201D182685A60002202611A68013A1A601868704700BF094B9B6A0B
:4032C0001B680BB9012300E0002323B14FF0FF32044BDA627047034B9A6AD268D2685268DA627047886C02082DE9F0413C4BD3F81831002B65D13A4BD3F814410134C3F891
:403300001441CCB99B6A1B6843B14FF03F0383F31188BFF36F8FBFF34F8FFEE7304B9A6AD3F8F8109962C3F8F820D3F820210132C3F82021FFF7C2FF294BDB6A9C4203D204
:40334000002645E0012600E00026254B9B6A1B680BB9012300E0002323B14FF0FF32204BDA6235E01E4B9B6ADB68DD686B689C4202D21B4AD3622BE005F104084046FFF754
:4033800089FFAB6A1BB105F11800FFF783FFEB6A134AD2F80C21934202D9114AC2F80C310F4F07F1300003EB83039A0041461044FFF764FFEA6AD7F80031DB6A9A42C1D2A3
:4033C000C3E7074AD2F824310133C2F824310026034BD3F8283103B101263046BDE8F081886C0208304BD3F8183123B101222E4BC3F82821704710B52B4B0022C3F8282158
:40340000D3F800311B6B1A68B2F1A53F0BD15A68B2F1A53F07D19A68B2F1A53F03D1DB68B3F1A53F07D0204BD3F80001D3F80011343100F09DF81C4BD3F80C310AE043B9B3
:403440004FF03F0383F31188BFF36F8FBFF34F8FFEE7013B03EB83018A0013490A44126B002AECD008469900CC18A2000244546B64685463303019448A00083202449442C0
:4034800006D1606803EB83018A0007490A445063054903EB830082000A44526BD268C1F80021C1F80C3110BD886C020800000000074B19680868B0E8F04F80F30988BFF32F
:4034C0006F8F4FF0000080F311887047AFF30080886D0208000000000000000000000000EFF30980BFF36F8F154B1A681EF0100F08BF20ED108A20E9F04F10602DE909003C
:403500004FF03F0080F31188BFF34F8FBFF36F8FFFF768FF4FF0000080F3118809BC19680868B0E8F04F1EF0100F08BFB0EC108A80F30988BFF36F8F704700BFAFF3008016
:40354000886D020808B54FF03F0383F31188BFF36F8FBFF34F8FFFF7C7FE18B14FF08052024B1A60002383F3118808BD04ED00E008B54FF03F0383F31188BFF36F8FBFF3EC
:403580004F8F4FF441710248FEF718F8FEE700BF386C081008B5084B1B783BB9074A08490848FEF739FB0122034B1A70054A136843F00043136008BDB46D0208BC750208FE
:4035C000886C08100000664008B518B1094AD062002000E0084858B9084B1B782BB90548FEF7F4FE0122054B1A7008B9FEF710FF08BD00BFE042020801001600B56D0208FA
:4036000008B5FEF795FF08BD38B504461D4B1A68916892F8703003F0010343F08043C1F800340369FF2B0AD89168B2F874200A44516821F47F411B029BB20B435360114B0F
:403640001A68906892F87310032303FA01F592F8703092F8721003FA01F1294303F001030B4343F00043C0F800349368D3F80034054D00212846FEF781FDA1682846FEF7B8
:403680007DFC38BD3475020800001D4108B5074B5B6813F4802F04D001210448FEF7B6FD08BD00210148FEF7B1FD08BD00001D4108B501460348FEF7BFFD08B1002008BD86
:4036C000012008BD00001D4108B5084B1B7963B907490848FDF714FF044B5B792BB90122024B5A710448FFF78FFF08BDBC6D02082937081094660810386F081008B5084BBC
:403700001B7913F0010F06D1FFF7DEFF044A137943F0010313710348FEF768FD08BD00BFBC6D020800001D4110B5094BD3F81042072C04D940F231610648FDF73FFF044B10
:40374000C3F81042D3F81022D3F8103210BD00BF00001D41FC6E081081F0004102E000BF83F0004330B54FEA41044FEA430594EA050F08BF90EA020F1FBF54EA000C55EA8E
:40378000020C7FEA645C7FEA655C00F0E2804FEA5454D4EB5555B8BF6D420CDD2C4480EA020281EA030382EA000083EA010180EA020281EA0303362D88BF30BD11F0004F0D
:4037C0004FEA01314FF4801C4CEA113102D0404261EB410113F0004F4FEA03334CEA133302D0524263EB430394EA050F00F0A780A4F10104D5F1200E0DDB02FA0EFC22FAAD
:4038000005F2801841F1000103FA0EF2801843FA05F359410EE0A5F120050EF1200E012A03FA0EFC28BF4CF0020C43FA05F3C01851EBE37101F0004507D54FF0000EDCF160
:40384000000C7EEB00006EEB0101B1F5801F1BD3B1F5001F0CD349085FEA30004FEA3C0C04F101044FEA445212F5800F80F09A80BCF1004F08BF5FEA500C50F1000041EB98
:40388000045141EA050130BD5FEA4C0C404141EB010111F4801FA4F10104E9D191F0000F04BF01460020B1FA81F308BF2033A3F10B03B3F120020CDA0C3208DD02F1140CD6
:4038C000C2F10C0201FA0CF021FA02F10CE002F11402D8BFC2F1200C01FA02F120FA0CFCDCBF41EA0C019040E41AA2BF01EB0451294330BD6FEA04041F3C1CDA0C340EDC0F
:4039000004F11404C4F1200220FA04F001FA02F340EA030021FA04F345EA030130BDC4F10C04C4F1200220FA02F001FA04F340EA0300294630BD21FA04F0294630BD94F034
:40394000000F83F4801306BF81F480110134013D4EE77FEA645C18BF7FEA655C29D094EA050F08BF90EA020F05D054EA000C04BF1946104630BD91EA030F1EBF0021002085
:4039800030BD5FEA545C05D14000494128BF41F0004130BD14F580043CBF01F5801130BD01F0004545F0FE4141F470014FF0000030BD7FEA645C1ABF194610467FEA655CE2
:4039C0001CBF0B46024650EA013406BF52EA033591EA030F41F4002130BD00BF90F0000F04BF0021704730B54FF4806404F132044FF000054FF0000150E700BF90F0000FB2
:403A000004BF0021704730B54FF4806404F1320410F0004548BF40424FF000013EE700BF42004FEAE2014FEA31014FEA02701FBF12F07F4393F07F4F81F06051704792F000
:403A4000000F14BF93F07F4F704730B54FF4607401F0004521F0004120E700BF50EA010208BF704730B54FF000050AE050EA010208BF704730B511F0004502D5404261EBB9
:403A800041014FF4806404F132045FEA915C3FF4DCAE4FF003025FEADC0C18BF03325FEADC0C18BF033202EBDC02C2F1200300FA03FC20FA02F001FA03FE40EA0E0021FACC
:403AC00002F11444C1E600BF70B54FF0FF0C4CF4E06C1CEA11541DBF1CEA135594EA0C0F95EA0C0F00F0DEF82C4481EA030621EA4C5123EA4C5350EA013518BF52EA033579
:403B000041F4801143F4801338D0A0FB02CE4FF00005E1FB02E506F00042E0FB03E54FF00006E1FB03569CF0000F18BF4EF0010EA4F1FF04B6F5007F64F5407404D25FEA59
:403B40004E0E6D4146EB060642EAC62141EA55514FEAC52040EA5E504FEACE2EB4F1FD0C88BFBCF5E06F1ED8BEF1004F08BF5FEA500E50F1000041EB045170BD06F000466D
:403B800046EA010140EA020081EA0301B4EB5C04C2BFD4EB0C0541EA045170BD41F480114FF0000E013C00F3AB8014F1360FDEBF002001F0004170BDC4F10004203C35DA43
:403BC0000C341BDC04F11404C4F1200500FA05F320FA04F001FA05F240EA020001F0004221F0004110EBD37021FA04F642EB06015EEA430E08BF20EAD37070BDC4F10C04DE
:403C0000C4F1200500FA04F320FA05F001FA04F240EA020001F0004110EBD37041F100015EEA430E08BF20EAD37070BDC4F1200500FA05F24EEA020E20FA04F301FA05F2FA
:403C400043EA020321FA04F001F0004121FA04F220EA020000EBD3705EEA430E08BF20EAD37070BD94F0000F0FD101F00046400041EB010111F4801F08BF013CF7D041EAFA
:403C8000060195F0000F18BF704703F00046520043EB030313F4801F08BF013DF7D043EA0603704794EA0C0F0CEA135518BF95EA0C0F0CD050EA410618BF52EA4306D1D1FA
:403CC00081EA030101F000414FF0000070BD50EA410606BF1046194652EA430619D094EA0C0F02D150EA013613D195EA0C0F05D152EA03361CBF104619460AD181EA0301CE
:403D000001F0004141F0FE4141F470014FF0000070BD41F0FE4141F4780170BD70B54FF0FF0C4CF4E06C1CEA11541DBF1CEA135594EA0C0F95EA0C0F00F0A7F8A4EB05047A
:403D400081EA030E52EA03354FEA013100F088804FEA03334FF0805545EA131343EA12634FEA022245EA111545EA10654FEA00260EF000419D4208BF964244F1FD0404F5D5
:403D8000407402D25B084FEA3202B61A65EB03055B084FEA32024FF480104FF4002CB6EB020E75EB030E22BFB61A754640EA0C005B084FEA3202B6EB020E75EB030E22BFDA
:403DC000B61A754640EA5C005B084FEA3202B6EB020E75EB030E22BFB61A754640EA9C005B084FEA3202B6EB020E75EB030E22BFB61A754640EADC0055EA060E18D04FEAB6
:403E0000051545EA16754FEA06164FEAC30343EA52734FEAC2025FEA1C1CC0D111F4801F0BD141EA00014FF000004FF0004CB6E711F4801F04BF01430020B4F1FD0C88BF86
:403E4000BCF5E06F3FF6AFAEB5EB030C04BFB6EB020C5FEA500C50F1000041EB045170BD0EF0004E4EEA113114EB5C04C2BFD4EB0C0541EA045170BD41F480114FF0000EC5
:403E8000013C90E645EA060E8DE60CEA135594EA0C0F08BF95EA0C0F3FF43BAF94EA0C0F0AD150EA01347FF434AF95EA0C0F7FF425AF104619462CE795EA0C0F06D152EA95
:403EC00003353FF4FDAE1046194622E750EA410618BF52EA43067FF4C5AE50EA41047FF40DAF52EA43057FF4EBAE12E74FEA4102B2F1E04324BFB3F5001CDCF1FE5C0DD9FE
:403F000001F0004C4FEAC0024CEA5070B2F1004F40EB830008BF20F00100704711F0804F21D113F13872BCBF01F00040704741F480114FEA5252C2F11802C2F1200C10FAF8
:403F40000CF320FA02F018BF40F001004FEAC1234FEAD32303FA0CFC40EA0C0023FA02F34FEA4303CCE77FEA625307D150EA01331EBF4FF0FE4040F44000704701F0004049
:403F800040F0FE4040F40000704700BF10B501390244904207D010F8013B11F8014FA342F7D0181B10BD002010BD10B5431E0A44914204D011F8014B03F8014FF8E710BD5E
:403FC00002440346934202D003F8011BFAE770470FB40A4B13B51C6824B1A36913B9204600F086F805AB049AA1680193204600F0DFFA02B0BDE8104004B07047BC460208BF
:404000000EB400B59CB04FF402711DABADF81410029006906FF000410A48049107914FF6FF7153F8042BADF816100068019302A900F0A0F9029B00221A701CB05DF804EBAC
:4040400003B07047BC46020810B5034642B111F8014B03F8014B013A002CF7D11A4400E010BD934202D003F8014BFAE710BD0000014900F0A9B800BFA14E0810002310B50E
:40408000044603604360836081814366C281036143618361194608225C30FFF791FF054B6362054BA362054BE362054B2462236310BD00BF414B0810634B08109B4B081009
:4040C000BF4B081070B568234D1E5D430E4605F1740100F097F8044640B1002180E842000C30A06005F16802FFF76AFF204670BD836910B5044633BB8364C3640365124B55
:40410000124A1B688262984204BF0123836100F01FF86060204600F01BF8A060204600F017F80022E06004216068FFF7A7FF01220921A068FFF7A2FF02221221E068FFF716
:404140009DFF0123A36110BDA474081071400810F8B51C4B1E68B369074613B93046FFF7C7FF4836B4687368013B04D4B4F90C507DB16834F8E733680BB13668F2E7042186
:404180003846FFF79FFF30600028F6D10C233B60F8BD4FF6FF73E3810123A38165662560A560656025616561A5610822294604F15C00FFF705FF6563A563A564E5642046B4
:4041C000F8BD00BFA47408102DE9F8438046894600F14804002694B1A5686768013F0CD4AB89012B07D9B5F90E30013303D029464046C84706436835F0E72468EBE73046C9
:40420000BDE8F88370B5CD1C25F0030508350C2D38BF0C25002D064601DBA94202D90C23336046E000F047FF234B1C681A462146A1B10B685B1B0ED40B2B03D90B60CC1825
:40424000CD501EE08C420DBF63684B686360136018BF0C4615E00C464968E9E7174C23681BB9304600F05CFC20602946304600F057FC431C18D0C41C24F00304A0420DD1BA
:404280002560304600F018FF04F10B00231D20F00700C31A0ED05A42E25070BD211A304600F03EFC0130EBD10C233360304600F003FF002070BD00BF207502081C750208B7
:4042C0002DE9F0478E689E4282460C46914698463ED88A8912F4906F3AD0256809696F1A6569022305EB450595FBF3F57B1C43449D4238BF1D4653050FD52946FFF782FFEE
:40430000064698B13A462169FFF74FFEA38923F4906343F08003A38113E02A4600F01CFF064670B92169504600F0C8FE0C23CAF80030A38943F04003A3814FF0FF30BDE8D8
:40434000F087266165613E44ED1B2660A5604646464528BF464632464946206800F090FEA3689B1BA36023681E4426600020BDE8F08700002DE9F04F9DB0804603938B8948
:404380001C060D4616460DD50B695BB94021FFF739FF2860286118B90C23C8F80030CDE040236B610023099320238DF82930DFF89CB130238DF82A3037463C4614F8013BD9
:4043C0001BB9B7EB060910D003E0252BF9D02746F3E74B46324629464046FFF771FF013000F0A780099B4B4409933B78002B00F0A08000234FF0FF320493079305920693B8
:404400008DF853301A930126052221784E4800F0E7FD671C049B38B14B4A801A06FA00F0184304903C46EFE7D90644BF20228DF853201A0744BF2B228DF8532022782A2A92
:4044400003D0079A00210A200BE0039A111D12680391002A10DA524243F00200079204900BE0274601343B78303B092B03D800FB02320121F5E701B107923B782E2B1ED182
:404480007B782A2B0AD1039B1A1D1B680392002BB8BF4FF0FF330237059310E000230593781C19460A24074601303A78303A092A03D804FB01210123F5E703B10591032204
:4044C0003978224800F08CFD40B14023CBEB000003FA00F0049B18430490013739781C488DF8281006227E1C00F07AFD88B1194B33B9039B073323F007030833039314E02D
:4045000003AB00932A46144B04A94046AFF3008007E003AB00932A460F4B04A9404600F0D9F9B0F1FF3F824603D0099B5344099342E7AB895B0601D4099801E04FF0FF305B
:404540001DB0BDE8F08F00BF087508100E7508101275081000000000C14208109368013B002B10B4936009DA9469A34202DBCBB20A2B03D15DF8044B00F026BB1368581CFC
:4045800010601970C8B25DF8044B7047F8B506460F461446D518AC4208D03A4614F8011B3046FFF7DBFF431CF5D100E00020F8BD2DE9F04F9DB00C4617460393064618B10E
:4045C00083690BB9FFF794FD7F4B9C4201D1746808E07E4B9C4201D1B46803E07C4B9C4208BFF468A38918070CD5236953B10023099320238DF8293030238DF82A30DFF861
:40460000D4B144E02146304600F044FB0028EED04FF0FF30D5E0039A111D12680391002A80F28C80524243F002000792049098F800302E2B00F08480032298F800106548C6
:4046400000F0CEFC48B14023CBEB000003FA00F0049B1843049008F1010898F800105E488DF82810062208F1010700F0B9FC002800F09580594B002B40F08880039B073314
:4046800023F0070308330393099B53440993B846454615F8013B1BB9B8EB07090FD003E0252BF9D0A846F3E74B463A4621463046FFF76CFF01307FD0099B4B44099398F80B
:4046C0000030002B78D000234FF0FF3204930793059206938DF853301A930127052229783F4800F07DFC05F10108049B38B13C4A801A07FA00F0184304904546EEE7D906C8
:4047000044BF20228DF853201A0744BF2B228DF853202A782A2A3FF47EAF079A00210A20A846013598F80030303B092B03D800FB02320121F4E700293FF479AF079276E78D
:4047400098F801302A2B0BD1039B1A1D1B680392002BB8BF4FF0FF3308F1020805936BE70023059308F1010019460A258046013098F80020303A092A03D805FB01210123B2
:40478000F4E7002B3FF458AF059155E703AB00932246144B04A93046AFF3008007E003AB009322460F4B04A9304600F093F8B0F1FF3F82467FF468AFA3895B063FF528AF49
:4047C00009981DB0BDE8F08FA8740810C8740810E87408100E7508101275081000000000087508108D4508102DE9F04791461F460A698B68DDF820809342B8BF1346C9F8A8
:40480000003091F8432006460C4612B10133C9F800302368990642BFD9F800300233C9F80030256815F0060510D104F1190A07E00123524639463046C04701301AD00135FE
:40484000E368D9F800209B1A9D42F1DB94F843302268003318BF012392060FD5E1185A1C302081F84300224494F8451082F84310023303E04FF0FF30BDE8F08704F14302FE
:4048800039463046C0470130F4D02268D9F80050E36802F00602042A08BF5D1B2269A3680CBF25EAE57500259342C4BF9B1AED184FF000091A344D4509D00123224639469D
:4048C0003046C0470130D5D009F10109F3E70020BDE8F0872DE9F04317460A7E85B06E2A984606460C460C9B01F1430E00F0AE8011D8632A22D009D8002A00F0BB80582AAC
:4049000040F0CA8081F84520834955E0642A1ED0692A1CD0C0E0732A00F0B08009D86F2A2ED0702A40F0B8800A6842F020020A603EE0752A24D0782A3AD0ADE01A6801F1BE
:404940004205111D1960136884F84230A8E021681A6811F0800F02D0111D196008E011F0400F02F10401196002D0B2F9003000E01368002B3CDA2D225B4284F8432037E070
:4049800021681A6811F0800F02D0111D196007E011F0400F02F10401196001D0138800E01368227E5C496F2A14BF0A2208221BE078225A4984F845202268186812F0800FB9
:4049C00000F104051D6003D1550601D5038800E00368D00744BF42F0200222601BB9226822F0200222601022002084F8430001E049490A226568A560002D08DB206820F077
:404A0000040020602BB9002D7DD175460CE0002B79D07546B3FBF2F002FB1033CB5C05F8013D03460028F5D1082A0BD12368DA0708D5236962689A42DEBF302305F8013CA1
:404A400005F1FF35C5EB0E0323612EE008681A68496910F0800F03D0101D1860136808E010F0400F02F104001860136801D0198000E0196000232361754616E01A68111DA7
:404A80001960156862680021284600F0A9FA08B1401B6060636804E004F1420584F8422001232361002384F84330CDF800803B4603AA21463046FFF797FE013002D14FF09F
:404AC000FF3026E023692A4639463046C0470130F5D023689B0710D5002504F1190907E001234A4639463046C0470130E7D00135E368039A9B1A9D42F2DBE068039B984287
:404B0000B8BF184605E00B7884F8423004F142058AE705B0BDE8F083197508102A75081038B5064C002305460846236000F0A0FB431C02D1236803B12B6038BDF475020806
:404B400010B50C46B1F90E1000F02CFB0028ABBF636DA3891B1823F48053ACBF6365A38110BD2DE9F0411F468B89DB0505460C46164605D502230022B1F90E1000F0BAF94B
:404B8000A389B4F90E1023F48053A38132463B462846BDE8F04100F06BB810B50C46B1F90E1000F0A7F9431CA38915BF606523F4805343F48053A38118BFA38110BDB1F983
:404BC0000E1000F0D5B80000F8B50F461446064618B183690BB9FFF78BFA224B9C4201D1746808E0204B9C4201D1B46803E01F4B9C4208BFF468A369A360A3891A0709D5DE
:404C000023693BB123682069181A63699842FDB20FDB08E02146304600F03CF80028F1D04FF0FF30F8BD2146304600F039F90028F6D1A368013BA36023685A1C22601F7038
:404C40006269431C934204D0A389DB0707D50A2D05D12146304600F023F90028E0D12846F8BD00BFA8740810C8740810E874081038B5074C054608461146002222601A4696
:404C800000F004FB431C02D1236803B12B6038BDF4750208324B70B51D6806460C4625B1AB6913B92846FFF723FA2E4B9C4201D16C6808E02C4B9C4201D1AC6803E02B4B2C
:404CC0009C4208BFEC68B4F90C309AB215071DD4D00602D4092232603AE0510712D5616B41B104F14403994202D0304600F0E6F900236363A38923F02403A3810023636072
:404D000023692360A38943F00803A38123694BB9A38903F42073B3F5007F03D02146304600F01EF9A28912F0010305D00023A36063695B42A36103E0920758BF6369A360B7
:404D400023695BB9B4F90C3003F0800080B230B143F04003A3814FF0FF3070BD002070BDBC460208A8740810C8740810E874081038B5064C002305460846236000F050FAE2
:404D8000431C02D1236803B12B6038BDF47502088A892DE9F041054610070C4659D44B68002B02DC0B6C002B17DDE66AAEB102F48052002392B22F682B600AB1606D15E085
:404DC000216A01232846B047411C0FD12B686BB11D2B01D0162B03D12F600020BDE8F081A38943F04003A381BDE8F081A3895A0705D56368C01A636B0BB1236CC01A0023C2
:404E00000246E66A216A2846B047431CA38906D129681D293AD8214ACA40D60736D500226260D9042269226004D5421C01D12B6803B96065616B2F600029CED004F14403F9
:404E4000994202D0284600F039F900206063BDE8F0810F69002FC0D093070E6808BF4B690F6018BF0023C7EB06088B6002E00744C0EB0808B8F1000FAFDD43463A46216A66
:404E8000A66A2846B0470028F1DCA38943F04003A3814FF0FF30BDE8F08100BF0100402038B50B6905460C46DBB118B183690BB9FFF71EF90C4B9C4201D16C6808E00B4BF5
:404EC0009C4201D1AC6803E0094B9C4208BFEC68B4F90C302BB121462846BDE83840FFF757BF002038BD00BFA8740810C8740810E874081038B5074C0546084611460022D9
:404F000022601A4600F0A4F9431C02D1236803B12B6038BDF475020870B50E46B1F90E10002990B014461D4606DA00232B60B3891A060ED540230EE001AA00F045F9002818
:404F4000F3DB029A02F47042A2F500535A425A412A604FF480630020236010B070BD00008B8973B59E0705460C4610D401AB6A46FFF7D2FF009906462846FFF743F968B993
:404F8000B4F90C309A0522D443F00203A38104F14703236023610123636118E00D4BAB62A389206043F08003A381009B6361019B20614BB1B4F90E10284600F017F918B18C
:404FC000A38943F00103A381A0893043A08102B070BD00BF71400810000000000000000001F0FF01102A2BDB10F0070F08D010F8013B013A8B422DD010F0070F42B3F6D1CC
:40500000F0B441EA012141EA014122F007047FF000070023F0E80256083C85EA010586EA010685FA47F5A3FA87F586FA47F6A5FA87F68EB9EED1F0BC01F0FF0102F00702B1
:4050400032B110F8013B013A83EA010313B1F8D10020704701387047002D06BF35460338073815F0010F07D1013015F4807F02BF013015F4C03F0130F0BC0138704700BF76
:40508000884210B501EB020301D8421E0BE09842FBD28118D21AD34204D013F8014D01F8014DF8E710BD994204D011F8014B02F8014FF8E710BD70477047000038B505464B
:4050C000002946D051F8043C0C1F002BB8BFE418FFF7F1FF1F4A1368114613B96360146032E0A3420ED92268A018834204BF18685B68636004BF121822600C6024E0A2428A
:4051000003D813465A68002AF9D118681918A1420BD12168014458188242196014D1106852685A60014419600EE002D90C232B600AE021686018824204BF10685268626022
:4051400004BF091821605C602846BDE83840FFF7B3BF38BD20750208F8B5074615460E4621B91146BDE8F840FFF74CB81AB9FFF7A5FF2846F8BD00F049F885420ED92946F8
:405180003846FFF73FF8044650B131462A46FEF70CFF31463846FFF791FF01E03046F8BD2046F8BD38B5074C054608461146002222601A4600F054F8431C02D1236803B18F
:4051C0002B6038BDF475020838B5074C0023054608461146236000F02BF8431C02D1236803B12B6038BD00BFF475020838B5064C002305460846236000F022F8431C02D1F6
:40520000236803B12B6038BDF475020851F8040C0028BEBF091851F8043CC01804387047024B58221A604FF0FF307047F4750208024B58221A604FF0FF307047F475020817
:40524000024B58221A600020704700BFF4750208024B58221A604FF0FF307047F4750208024B58221A604FF0FF307047F4750208044A05491368002B08BF0B46184410600C
:405280001846704724750208F8750208024B58221A604FF0FF307047F4750208000000002DE9F04FDFF8F4928DB006460F4614461D4600F079F999F90080B8F1FF3FCDE988
:4052C000000145D022462B462046294601F032F9834600283CD132463B463046394601F029F98246002840F08580304639460022002301F0EDF880B300220023204629464D
:4053000001F0E6F88346A8B19FED9D7B01229E4BCDF828A00292CDE90467CDE906458DED087B0393B8F1000F53D0984900200DB0BDE8F08F2046294600F054FF40B100220E
:4053400000232046294601F0CDF8002840F0BA80DDE900010DB0BDE8F08FDDE9000100F041FF804600285FD04FF0000A4FF0000BDDE9000152465B4601F0AAF80028E7D02C
:405380003046394600F02EFF0028E1D02046294600F028FF0028DBD099F900307A4A039204210022022BCDE90467CDE90645CDE908AB02910A9203D002A800F019FF70B94C
:4053C00001F0CEF82223036009E09FED6D7B8DED087B02A800F00CFF002800F089800A9B1BB101F0BDF80A9B0360DDE908010DB0BDE8F08F002200232046294601F068F8F4
:405400000028A5D06149604BCDF828B000200122B8F1020FCDE904670292CDE90645CDE908010393D5D195E73046394600F0DAFE002899D02046294600F0D4FE002893D043
:40544000DDE900231046194601F074F800287AD1032399F9008002934B4B0A90CDE90467CDE906450393B8F1000F46D1DFF830B14FF0604A0022002330463946CDE908ABF6
:4054800001F030F8002897D00022414B20462946FEF71AFB04460D4600F0B2FE02460B462046294601F014F8002849D1394B99F900804FF06042CDE90823B8F1020F7FF448
:4054C0007BAF7DE799F900302F4ACDF828B00121CDE90467CDE9064502910392002B3FF474AF2D490020022BCDE908017FF471AF01F036F82123036071E7DFF8A8B04FF0B8
:40550000000A0022002330463946CDE908AB00F0E9FF0028D1D000221D4B20462946FEF7D3FA04460D4600F06BFE02460B462046294600F0CDFF18B9174B0022CDE90823A6
:4055400099F90080B9E799F900900F4BCDF828800122CDE90467CDE9064502920393B9F1000F3FF432AF0022002310461946FEF7D5FBB9F1020FCDE90801B9D029E700BFC3
:4055800000000000000000003C7508100000F03F0000E03FFFFFEFC70000F0FFC0460208FFFFEF470000F07F2DE9F04F23F0004757EA020493B037D0674C21F00046A6424C
:4055C00083460D4629DC9A46964625D0A74224DC614CA74279D0002D80468946CDE9002377DB0024BEF1000F2CD15B4B9F4200F08B805A4B9F4261D0BAF1804F00F0C2835D
:40560000574B9A451ED1002D1CDB4046494613B0BDE8F04F00F020BD58B106F1404606F5801656EA0B0306D14C49002013B0BDE8F08FB742CCDD4B4813B0BDE8F04F00F0A9
:40564000D9BD00244046494600F0C8FDBBF1000F19D126B1414B25F040429A4213D1BAF1000FC0F2C983002DE0DA06F1404606F5801656EA040300F0A184012CD6D101F178
:4056800000494946D2E7ED0F013D54EA05034ED0354B9F426EDD03F104739F4240F3EE83324B9E424EDDBAF1000F4EDD28A3D3E9002310461946FEF707FAB7E7BAF1000F05
:4056C000C0F24E8440464946B0E7BEF1000F82D0A3E7274B9F4228DCA3F154739F4280DD3B15A3F2FF33142B40F35084C3F134032EFA03F202FA03F39E457FF472AF02F030
:405700000102C2F102046DE706F1404303F5801353EA0B0388D0154B9E4240F36383BAF1000F12DBDDE9000180E702245AE742464B4610461946FEF713F802460B46FEF7C0
:40574000EDFA73E7BAF1000FB0DB002000216DE79C7500883CE4377E0000F07F0000F03F0000E03F546608100000E041FFFFEF3FFFFF3F43B6F5801F4FF0000205DAD84BB7
:40578000FEF7A2F96FF034020E463315D54FC6F31306A3F2FF33134446F07F5ABE421A460D934AF4401A40F3CF83CF4B9E4240F309849FEDB57B8DED087B8DED0E7B9FEDE6
:4057C000B47B13468DED067B01330D93AAF5801A0027DDE906235146CDE90A01FDF7C0FFDDE9062380468946DDE90A01FDF7BAFF02460B460020BD49FEF790FA0A46014621
:40580000CDE910121346494602464046FEF75CF94FEA6A0343F000538C46834603F50023CDE904BCDA468B46D9190023CDE902AB0293DDE902AB002006460F4602460B466D
:4058400050465946FEF740F902460B4640464946FDF786FFDDE906238046894630463946FDF77EFF02460B46DDE90A01FDF778FF52465B46FEF728F902460B4640464946E2
:40588000FDF76EFFDDE91023FEF71EF9DDE90467CDE9060132463B4630463946FEF714F97DA3D3E9002306460F46FEF70DF97CA3D3E90023FDF756FF32463B46FEF704F9D7
:4058C00079A3D3E90023FDF74DFF32463B46FEF7FBF877A3D3E90023FDF744FF32463B46FEF7F2F874A3D3E90023FDF73BFF32463B46FEF7E9F872A3D3E90023FDF732FF78
:405900003246804689463B4630463946FEF7DCF802460B4640464946FEF7D6F8524606460F465B46DDE90401FDF71CFFDDE90623FEF7CAF832463B46FDF714FF52468046F2
:4059400089465B4650465946FEF7BEF80022684BCDE90A01FDF706FF42464B46FDF702FF02980F46064632463B4650465946FEF7ABF8002282468B465D4B30463946FDF7ED
:40598000EFFEDDE90A23FDF7EBFE02460B4640464946FDF7E5FEDDE90423FEF795F83246804689463B46DDE90601FEF78DF802460B4640464946FDF7D5FE8046894602460F
:4059C0000B4650465946CDE904ABFDF7CBFEDDE902AB3DA3D3E9002350460F46FEF774F8DDE90423CDE9020139465046FDF7B8FE02460B4640464946FDF7B2FE34A3D3E937
:405A00000023FEF761F834A3D3E900238046894650463946FEF758F802460B4640464946FDF7A0FEDDE90E23FDF79CFE80460D988946FDF7E3FF424606460F464B46DDE9FB
:405A40000201FDF78FFEDDE90823FDF78BFE32463B46FDF787FE32463B4650468B46FDF77FFEDDE90823FDF77BFEDDE90223FDF777FE02460B4640464946FDF771FE804668
:405A8000894637E0AFF300800000000000000000000000000000F03FEF4E454A287ECA3F65DBC9934A86CD3F01411DA96074D13F4D268F515555D53FFFAB6FDBB66DDB3F8E
:405AC000033333333333E33F000000E009C7EE3FFD033ADC09C7EE3FF5015B14E02F3EBE000040438E98030079B60B000000F03F00000840013C54EA050300F06E819FEDD7
:405B0000C27B8DED047BDDE900120B461446CDE9023400230293DDE9024508462B4611462246FDF71DFE52465B46FDF7CDFFDDE9002306460F4640464946FDF7C5FF0246D6
:405B40000B4630463946FDF70DFE2246804689462B4650465946CDE90089FDF7B5FF0B46024606460F4640464946FDF7FBFDBE4B994204460D468A4640F30B8101F13F4397
:405B800003F5E003034340F0F381A1A3D3E90023DDE90001FDF7E6FD3246804689463B4620462946FDF7DCFD02460B464046494600F0B6FC002840F0DB81A8464FEA285389
:405BC0004FF48012A3F2FE3342FA03F35344C3F30A52A64DA2F2FF321541C3F3130B0020C2F1140423EA05014BF4801BBAF1000F02460B464BFA04FB30463946B8BFCBF1B6
:405C0000000BFDF7ADFD02460B4606460F46DDE90001FDF7A7FD4FEA0B5A00247EA3D3E9002320460D46FDF74FFF3246804689463B4620462946FDF793FD02460B46DDE91F
:405C40000001FDF78DFD76A3D3E90023FDF73CFF75A3D3E9002306460F4620462946FDF733FF02460B4630463946FDF77BFD06460F4602460B4640464946FDF773FD4246B6
:405C80004B4604460D46FDF76BFD02460B4630463946FDF765FD2246804689462B4620462946FDF711FF62A3D3E9002306460F46FDF70AFF60A3D3E90023FDF751FD324611
:405CC0003B46FDF701FF5EA3D3E90023FDF74AFD32463B46FDF7F8FE5BA3D3E90023FDF73FFD32463B46FDF7EFFE59A3D3E90023FDF738FD32463B46FDF7E6FE02460B46DC
:405D000020462946FDF72CFD06460F4602460B4620462946FDF7D8FE0022CDE900014FF0804330463946FDF71BFD02460B46DDE90001FDF7F3FF424606460F464B46204656
:405D40002946FDF7C1FE42464B46FDF70BFD02460B4630463946FDF703FD22462B46FDF7FFFC02460B4600204149FDF7F9FC8A44BAF5801FC0F236815146DDE90423FDF779
:405D8000A3FE53E442464B4640464946FDF79CFE4CE4384B21F00048984540F30681364B0B4403430CD132463B46FDF7D9FC02460B46DDE9000100F09FFB00283FF4FEAE06
:405DC000DDE9040124A3D3E90023FDF77DFE22A3D3E90023FDF778FE28E49FED217B8DED047B90E6BAF1000FBFF6AFACDDE90034184604F1004119E402460B4600201C499F
:405E0000FDF78CFF2FE400BF000000000000F03FFE822B654715973C00000000432EE63FEF39FAFE422EE63F396CA80C615C20BED0A4BE726937663EF16BD2C541BDBB3E92
:405E40002CDE25AF6A56113F93BDBE166CC1663F3E5555555555C53F59F3F8C21F6EA501000000000000F0BFFFFF8F40FFFF0F000000F03FFFCB904000346F3F724B9E4249
:405E80007FF760AC714B9E423FF70DAC00226F4BFDF766FC58A3D3E9002306460F46FDF713FE57A3D3E900238046894630463946FDF70AFE002282468B46654B3046394664
:405EC000FDF702FE02460B464FA1D1E90001FDF747FC32463B46FDF7F7FD02460B4600205C49FDF73DFC3246CDE902013B4630463946FDF7E9FD02460B46DDE90201FDF7F0
:405F0000E3FD43A3D3E90023FDF7DEFD02460B4650465946FDF724FC02460B4606460F4640464946FDF71EFC42464B46002082468B46FDF715FC02460B4630463946FDF755
:405F40000FFC80468946D5E59FED337B8DED087B8DED0E7B9FED327B00278DED067B38E442464B4600203949FDF7D8FEFFF75EBBDDE904012CA3D3E90023FDF7A5FD2AA3A6
:405F8000D3E90023FDF7A0FDFFF750BBBEF1000F7FF457ABC3F1140347FA03F202FA03F39F4223D07446FFF724BB2A4B98453FF705AEDDE902349A469B462EE602460B4642
:405FC000FFF7B7BB9FED1A7B8DED087B9FED1A7B8DED0E7B9FED1A7B4FF480278DED067BFFF7F7BB5A4600F097F9C6E602F00102C2F10204FFF7FDBA000000604715F73F30
:4060000044DF5DF80BAE543E555555555555D53FFE822B654715F73F0000000000000000000000000000F03F9C7500883CE4377E0000004003B8E23F06D0CF43EBFD4C3ED6
:40604000000000000000F83FFEFFEF3F0000F03F0000D03F0000E03F2DE9F0415E4EB6460E40764504460D4600F0948000290B46024672DD0F157DD0A7F2FF37C3F31303AB
:40608000F80743F4801363D403EBD27100260B447F105200B64616204FF400110EEB01049C424FEAD2754FEA420203DC1B1B04EB010E0E44013805EB43034FEA5101EDD1DD
:4060C000844620244FF0004109E020D003EBD275013C4FEA51012B444FEA420220D09E4501EB0C05F1DA002D05EB010C09DBF0469542CEEB030300D9013B521B0844C64601
:40610000E4E7BCF1000FF2DB0EF10108F0E795421CD8002D05EB010C48DB98460023ECE7134304D0411C45D000F00104204444087310F20703F17F5303F5001348BF44F077
:40614000004403EB07512046BDE8F0817346BDE75B0003EBD273520096E721F00046064322D071BB0F46D30A153F5205002BFAD0DD0221D4002100E001465B00DC0201F188
:406180000100F9D5C0F1200422FA04F423437F1A824071E702460B46FDF796FC22462B46FDF7E0FABDE8F081BDE8F081BCF1000FAADAB2E70136BBE720244FF0FF31002097
:4061C000E2E702460B46FDF7CBFA02460B46FDF7A5FDBDE8F08100BF0000F07F21F00041704700BF41F0004101F58010C00F70470020704700200149704700BF0000F87F9D
:40620000F0B5C1F30A5EAEF2FF36132E83B002460B460C464FEAD17507462EDC002E49DB3B49314103EA010010432BD049080B4053EA02070CD04FF48023132E24EA01011A
:4062400043FA06F444EA01040CBF4FF000470027304B03EBC5052146D5E90045384622462B46FDF77FFACDE9000122462B46DDE90001FDF775FA03B0F0BD332E06DDB6F5D2
:40628000806F42D01046194603B0F0BDAEF2134E4FF0FF3121FA0EF10842F3D049080842D6D04FF0804320EA010143FA0EFE4EEA0107CDE721F000410143E3D0C3F3130192
:4062C000144E41EA000CCCF100015C0C06EBC503D3E9006741EA0C0C4FEA1C3C0CF4002C64044CEA040132463B46FDF73BFACDE900013B463246DDE90001FDF731FA21F097
:40630000004444EAC5731946BEE7FDF72BFABBE7FFFF0F0040750810F8B5C1F30A5604460D460B46174606BB21F00043034325D00022354BFDF7C8FB344A974204460D4671
:406340000B462ADBC1F30A56363E3E4440F2FE72964228DC002E12DD23F0FF4323F4E00343EA065520462946F8BD40F2FF729642EBD102460B46FDF7F5F9F8BDF8BD16F19E
:40638000350F1DDA4CF250339F4222462B4625DC19A1D1E9000100F03DF817A3D3E90023FDF792FBF8BD22462B4615A1D1E9000100F030F812A3D3E90023FDF785FBF8BD9E
:4063C00023F0FF4323F4E003363643EA06552046294600220E4BFDF777FBF8BD08A1D1E9000100F017F806A3D3E90023FDF76CFBF8BD00BFAFF3008059F3F8C21F6EA501DA
:406400009C7500883CE4377E00005043B03CFFFF0000903C03F0004321F0004242EA0301704700BF4FF0FF3C06E000BF4FF0010C02E000BF4FF0010C4DF804CD4FEA410C82
:406440007FEA6C5C4FEA430C18BF7FEA6C5C1BD001B050EA410C0CBF52EA430C91EA030F02BF90EA020F0020704710F1000F91EA030F58BF994208BF90422CBFD8176FEAD7
:40648000E37040F0010070474FEA410C7FEA6C5C02D150EA013C07D14FEA430C7FEA6C5CD6D152EA033CD3D05DF8040B704700BF8446104662468C461946634600E000BF2F
:4064C00001B5FFF7B7FF002848BF10F1000F01BD4DF808EDFFF7F4FF0CBF012000205DF808FB00BF4DF808EDFFF7EAFF34BF012000205DF808FB00BF4DF808EDFFF7E0FF84
:4065000094BF012000205DF808FB00BF4DF808EDFFF7CEFF94BF012000205DF808FB00BF4DF808EDFFF7C4FF34BF012000205DF808FB00BF4FEA410C7FEA6C5C02D150EA06
:40654000013C0AD14FEA430C7FEA6C5C02D152EA033C02D14FF0000070474FF001007047014B1868704700BFBC460208F8B500BFF8BC08BC9E467047F8B500BFF8BC08BC8B
:406580009E4670470000000001B40248844601BC604700BFD1490208526573756C74730A0D00000047656E6572617465645F536F757263655C50536F43362F4144435F503B
:4065C000686F746F7265736973746F722E6800002048756D69646974793A20252E3266200A0D2054656D70657261747572653A20252E3266200A0D0020496C6C756D696EC3
:40660000616E63653A2025640A0D20536F696C4D6F6973747572653A2025640A0D20536F696C4D6F69737475726550657273656E743A20252E32660A0D000000204572722B
:406640006F722072656164696E672073656E736F72210A0D000000000300000001000000010000000000000005036000040000000100000000000000010000000604600070
:4066800008000000A86B02085105081064656275672E63008A000000070000002B00000007000000130000000700000047656E6572617465645F536F757263655C50536F05
:4066C00043365C70646C5C647269766572732F7065726970686572616C2F6970632F63795F6970635F6472762E68000047656E6572617465645F536F757263655C50536FB0
:4067000043365C70646C5C647269766572735C7065726970686572616C5C6970635C63795F6970635F6472762E68000047656E6572617465645F536F757263655C50536FE8
:4067400043365C70646C5C647269766572735C7065726970686572616C5C6970635C63795F6970635F6472762E63000047656E6572617465645F536F757263655C50536FAD
:4067800043365C70646C5C647269766572735C7065726970686572616C5C6970635C63795F6970635F706970652E630047656E6572617465645F536F757263655C50536F0B
:4067C00043365C70646C5C647269766572735C7065726970686572616C5C737973696E745C63795F737973696E742E630000000047656E6572617465645F536F757263656A
:406800005C50536F43365C70646C5C647269766572735C7065726970686572616C5C737973706D5C63795F737973706D2E63000000002040000024400000004000000000F2
:4068400000002340000030400000314000009F40000022400000104002020202020202020210101D800017007500FF030602063604102000000000007FC00000000400002B
:40688000000000000019324B647D00804000080B100000000000FF012002001F00800004FF081018001000140018001C4044484C50000000081000000800000004000000A6
:4068C000041000000012000004210000002100000016000040114002C41300138013A013200000001C000000000021400000254000000140000034400000244000003140C7
:406900000000324000001F410000234000001140010101010101010101101010800019005500F0000501053B04101C01010000000FC000000004000001010101011D3A57BC
:40694000789600082000101208000000001F00000010000F002000023F06080E00080009000A000B24282C303400000010000000900000008800000008000000800000004A
:4069800004F0000000F00000400200002005A000D00100018001A001200000001000000047656E6572617465645F536F757263655C50536F43365C70646C5C647269766570
:4069C00072735C7065726970686572616C5C6D637764745C63795F6D637764742E63000047656E6572617465645F536F757263655C50536F43365C70646C5C647269766510
:406A000072735C7065726970686572616C5C7363625C63795F7363625F756172742E680047656E6572617465645F536F757263655C50536F43365C70646C5C64726976657D
:406A400072735C7065726970686572616C5C7363625C63795F7363625F636F6D6D6F6E2E6800000047656E6572617465645F536F757263655C50536F43365C70646C5C6426
:406A80007269766572735C7065726970686572616C5C7363625C63795F7363625F756172742E630047656E6572617465645F536F757263655C50536F43365C70646C5C6402
:406AC0007269766572735C7065726970686572616C5C7361725C63795F7361722E630000240003003000010028000200240002000C00010000316253C4F5A697B988DBEACC
:406B00007D4C1F2E4372211087B6E5D4FACB98A93E0F5C6D86B7E4D5427320113F0E5D6CFBCA99A8C5F4A796013063527C4D1E2FB889DAEB3D0C5F6EF9C89BAA84B5E6D745
:406B4000407122137E4F1C2DBA8BD8E9C7F6A59403326150BB8AD9E87F4E1D2C02336051C6F7A495F8C99AAB3C0D5E6F4170231285B4E7D67A4B1829BE8FDCEDC3F2A19045
:406B80000736655439085B6AFDCC9FAE80B1E2D344752617FCCD9EAF38095A6B4574271681B0E3D2BF8EDDEC7B4A192806376455C2F3A0914776251483B2E1D0FECF9CAD05
:406BC0003A0B586904356657C0F1A293BD8CDFEE79481B2AC1F0A3920534675678491A2BBC8DDEEF82B3E0D1467724153B0A5968FFCE9DAC3F06000000000000FFFF000064
:406C000047656E6572617465645F536F757263655C50536F43365C70646C5C6D6964646C65776172655C626C655C63795F626C655F6761702E68000047656E657261746547
:406C4000645F536F757263655C50536F43365C70646C5C72746F735C4672656552544F535C31302E302E315C536F757263655C706F727461626C655C4743435C434D344688
:406C80005C706F72742E6300000000000C0000000800000000020000000000000000000000000000000000000000000000000000000000000B000000000000000000000001
:406CC000000000000000000000000300010019000100002801000000090000000018000000000000020003280100020003000000002A0000000000000300002A010002019E
:406D0000030000000F0000002C430208040003280100020005000000012A0000000000000500012A010002010500000002000000344302080600032801000200070000006F
:406D4000042A0000000000000700042A0100020107000000080000003C430208080003280100020009000000A62A0000000000000900A62A0100020109000000010000001E
:406D8000444302080A000028010000000D00000001180000000000000B000328010020000D000000052A0000000000000C00052A000020010D000000040000004C43020850
:406DC0000D00022901010A030D00000002000000544302080E000028010000001000000002180000000000000F0003280100040010000000062A0000000000001000062A7C
:406E00000001040110000000010000005C4302081100002801000000190000000A18000000000000120003280100020013000000292A0000000000001300292A010002010D
:406E4000130000002100000064430208140003280100020015000000242A0000000000001500242A0100020115000000200000006C430208160003280100020017000000D8
:406E8000272A0000000000001700272A01000201170000002600000074430208180003280100020019000000262A0000000000001900262A010002011900000005000000DD
:406EC0007C4302080100030005000700090000000A000C000D00000011001300150000001700190000000000000000000E0010003F1F0080010010000100000047656E6597
:406F000072617465645F536F757263655C50536F43365C70646C5C647269766572732F7065726970686572616C2F7361722F63795F7361722E68000000000000020000007B
:406F40004C6F0810010000001B00000066EE2016D800049002000200020002000002000E0000000003000000000400000114000000000000000000000000000000000000F8
:406F800000000000000000000000000000000000000000000000000000000000000000000000000000000000010000000000000000000000000000000000000000000000D0
:406FC00072060000000404000104080002041400030C200004042C0005064800E5B9081079BE081079BE081079BE081079BE0810F1A30810C5A4081079BE081079BE081077
:4070000079BE081079BE081079BE081079BE081079BE081079BE081079BE081079BE08100DBC081059BC081091B2081095B4081071B80810819208100000000048740810CE
:40704000E873081008000000DD2D091000000000B8720810047208100F0000000000000000000000000000000000000000000000012000000DCA08100620000051CB081029
:407080000720000021CA08100820000011CB08100920000011CC08100A2000000DC908100B200000D5CB08100C2000009DCB08101020000069C9081011200000E9C8081051
:4070C00012200000EDCA08101420000089CB08101520000081C90810172000003DC908100E2000006DC90810ACFD0000E3CD0810ADFD0000D7CC0810A0FD00004DCE0810E1
:40710000A1FD000037CD0810A2FD000073CD0810A5FD000043CF0810A6FD0000A7CE0810A8FD0000A9CC0810A9FD00007FCC0810AAFD00009BCD0810ABFD000009CF0810A8
:40714000AFFD000099CD0810C3FD0000F5CE0810B0FD00006DCE0810B2FD0000BBCE081005140000C7C908102D0C0000A1CA08107B0C00004FCA08107C0C000045CC081014
:4071800027200F2028201020292010202B200A202C200B202D200D202E200C204E2017200000010001000001000102020300020000000000020201000200000100010005C8
:4071C0000100050202030002000000000002050100050000E9250910512709105926091001010B0102028102820503040403840906090709080909090A09050A0C0B0D0DD7
:407200000E0E0000010000000100000000000000020000000400000002000000030000000700000005000000040000000A00000008000000050000000C0000000B000000E7
